:100000000C944D000C946C000C946C000C946C00DF
:100010000C946C000C946C000C946C000C946C00B0
:100020000C946C000C946C000C946C000C946C00A0
:100030000C946C000C94E5000C946C000C946C0017
:100040000C946C000C946C000C946C000C946C0080
:100050000C946C000C946C000C946C000C946C0070
:100060000C946C000C946C000C946C000C946C0060
:100070000C946C000C946C000C946C000C946C0050
:100080000C946C000C946C000C946C009101B60103
:100090000B02DB0130026002850211241FBECFEF8C
:1000A000D0E4DEBFCDBF11E0A0E0B1E0E0E7F6E0D4
:1000B00000E00BBF02C007900D92A431B107D9F741
:1000C00021E0A4E1B1E001C01D92AC31B207E1F73B
:1000D0000E94F3020C9436030C940000CF93DF933C
:1000E00000D01F92CDB7DEB789837B836A83898175
:1000F0008A3031F48A819B81BC018DE00E946E00C0
:1001000080EC90E0FC018081882F90E0807299273C
:10011000892BB1F386EC90E02981FC01208380E0FB
:1001200090E00F900F900F90DF91CF910895CF93B3
:10013000DF93CDB7DEB781E890E02BE0FC012083B0
:1001400088E890E02DE730E0FC01318320838FE6E2
:1001500090E022E0FC01208384E890E0FC01118221
:10016000108280910E0190910F01A0911001B09129
:1001700011018093150190931601A0931701B0937C
:1001800018018FE590E02FE530E0F901208120682B
:10019000FC0120830000DF91CF910895CF93DF937E
:1001A000CDB7DEB781E890E0FC0110820000DF915E
:1001B000CF910895CF93DF93CDB7DEB781E08093E1
:1001C00014010000DF91CF9108951F920F920090CB
:1001D0005F000F92112400905B000F922F933F93CA
:1001E0004F935F936F937F938F939F93AF93BF933F
:1001F000EF93FF93CF93DF93CDB7DEB780911501D7
:1002000090911601A0911701B09118010197A109D1
:10021000B1098093150190931601A0931701B09333
:1002200018018091150190911601A0911701B091CC
:100230001801892B8A2B8B2B91F40E94DA00809174
:100240000E0190910F01A0911001B09111018093C6
:10025000150190931601A0931701B09318010000A7
:10026000DF91CF91FF91EF91BF91AF919F918F91CE
:100270007F916F915F914F913F912F910F900092DD
:100280005B000F9000925F000F901F901895CF9326
:10029000DF9300D000D0CDB7DEB769837A838B833C
:1002A0009C8389819A81AB81BC8180930E0190935C
:1002B0000F01A0931001B093110180910E01909154
:1002C0000F01A0911001B09111018093150190933D
:1002D0001601A0931701B093180100000F900F9022
:1002E0000F900F90DF91CF910895CF93DF931F92DE
:1002F000CDB7DEB7898380911A0190911B01CC01A3
:10030000A0E0B0E040E050E026E030E0841B950B38
:100310002817390708F41EC18A5B9F4FFC010C9413
:100320002D038981882339F485E090E090931B01A7
:1003300080931A0116C18981813039F481E090E0FF
:1003400090931B0180931A010CC18981823039F48A
:1003500082E090E090931B0180931A0102C186E035
:1003600090E090931B0180931A01FBC08981882340
:1003700039F485E090E090931B0180931A01F1C05D
:100380008981813039F483E090E090931B01809360
:100390001A01E7C08981823039F482E090E09093BD
:1003A0001B0180931A01DDC086E090E090931B0151
:1003B00080931A01D6C08981882339F485E090E0C2
:1003C00090931B0180931A01CCC08981813091F4F4
:1003D000809119018A3038F081E090E090931B0100
:1003E00080931A01BEC083E090E090931B0180933C
:1003F0001A01B7C08981823039F482E090E090938D
:100400001B0180931A01ADC086E090E090931B0120
:1004100080931A01A6C08981882339F485E090E091
:1004200090931B0180931A019CC08981813039F41B
:1004300081E090E090931B0180931A0192C0898122
:10044000823039F484E090E090931B0180931A018C
:1004500088C086E090E090931B0180931A0181C0D0
:100460008981882339F485E090E090931B01809383
:100470001A0177C08981813039F481E090E090934E
:100480001B0180931A016DC08981823091F48091A3
:1004900019018A3038F082E090E090931B0180933C
:1004A0001A015FC084E090E090931B0180931A01D1
:1004B00058C086E090E090931B0180931A0151C0D0
:1004C0008981882339F485E090E090931B01809323
:1004D0001A0147C08981813039F481E090E090931E
:1004E0001B0180931A013DC08981823039F482E07A
:1004F00090E090931B0180931A0133C086E090E056
:1005000090931B0180931A012CC08981882339F4B0
:1005100085E090E090931B0180931A0122C08981AD
:10052000813039F481E090E090931B0180931A01AF
:1005300018C08981823039F482E090E090931B01E9
:1005400080931A010EC086E090E090931B01809387
:100550001A0107C086E090E090931B0180931A0176
:10056000000080911A0190911B018330910539F1AF
:100570008430910530F48130910549F0029799F06B
:100580002DC08430910509F1069729F127C080918B
:100590001201893028F4809112018F5F809312013B
:1005A000109219011BC080911201882329F08091BB
:1005B0001201815080931201109219010FC0809195
:1005C00019018F5F8093190109C0809119018F5F14
:1005D0008093190103C010921201000000000F90D7
:1005E000DF91CF910895CF93DF931F92CDB7DEB700
:1005F00081E290E0FC01108282E290E02FEFFC01AA
:10060000208384E290E02FEFFC01208385E290E0DC
:10061000FC01108264E670E080E090E00E944701F7
:100620000E949700198210921B0110921A0180E219
:1006300090E0FC018081898389810E94750185E2B7
:1006400090E020911201FC012083000080911401B0
:100650008823E1F310921401EACFEE0FFF1F00246C
:10066000001C0BBE0790F691E02D0994F894FFCF83
:1006700000000002000000006E0000000000010009
:04068000000007006F
:00000001FF
